{
  "hash": "0000000000000000001f9ba01120351182680ceba085ffabeaa532cda35f2cc7",
  "confirmations": 127501,
  "strippedsize": 249,
  "size": 285,
  "weight": 1032,
  "height": 500044,
  "version": 536870912,
  "versionHex": "20000000",
  "merkleroot": "db5f956e4f48e79895021a9f7e64035fd03680e96253aafd438118485bfe49cb",
  "tx": [
    {
      "txid": "db5f956e4f48e79895021a9f7e64035fd03680e96253aafd438118485bfe49cb",
      "hash": "3286aa5c7ce04f05501e2c2947c2efc6e0a3978c9b84397df2647bd2c31a2369",
      "version": 1,
      "size": 204,
      "vsize": 177,
      "weight": 708,
      "locktime": 0,
      "vin": [
        {
          "coinbase": "034ca107174d696e656420627920416e74506f6f6c6e45205a384b745204000092630200",
          "sequence": 4294967295
        }
      ],
      "vout": [
        {
          "value": 12.5,
          "n": 0,
          "scriptPubKey": {
            "asm": "OP_DUP OP_HASH160 eb181d60731cc7521db83a8f93beba8da692a229 OP_EQUALVERIFY OP_CHECKSIG",
            "hex": "76a914eb181d60731cc7521db83a8f93beba8da692a22988ac",
            "reqSigs": 1,
            "type": "pubkeyhash",
            "addresses": [
              "1NS4gbx1G2D5rc9PnvVsPys12nKxGiQg72"
            ]
          }
        },
        {
          "value": 0,
          "n": 1,
          "scriptPubKey": {
            "asm": "OP_RETURN aa21a9ede2f61c3f71d1defd3fa999dfa36953755c690689799962b48bebd836974e8cf9",
            "hex": "6a24aa21a9ede2f61c3f71d1defd3fa999dfa36953755c690689799962b48bebd836974e8cf9",
            "type": "nulldata"
          }
        }
      ],
      "hex": "010000000001010000000000000000000000000000000000000000000000000000000000000000ffffffff24034ca107174d696e656420627920416e74506f6f6c6e45205a384b745204000092630200ffffffff02807c814a000000001976a914eb181d60731cc7521db83a8f93beba8da692a22988ac0000000000000000266a24aa21a9ede2f61c3f71d1defd3fa999dfa36953755c690689799962b48bebd836974e8cf90120000000000000000000000000000000000000000000000000000000000000000000000000"
    }
  ],
  "time": 1513638772,
  "mediantime": 1513637870,
  "nonce": 437791427,
  "bits": "18009645",
  "difficulty": 1873105475221.611,
  "chainwork": "000000000000000000000000000000000000000000cdf0278fffdc8ee491ba77",
  "nTx": 1,
  "previousblockhash": "00000000000000000075807003ae64990ee53422788451b795839f70a177695d",
  "nextblockhash": "0000000000000000000401882bfcb7e7f14a14e21b827e5fb5981d07a5cea0f2"
}