{
  "hash": "000000000000000000222975c4926be6da3bae4d8e93046613209dbd054fc74b",
  "confirmations": 76020,
  "strippedsize": 244,
  "size": 280,
  "weight": 1012,
  "height": 551515,
  "version": 536870912,
  "versionHex": "20000000",
  "merkleroot": "98a6d1f184b1394a2044437e6e07eb8f99c8d5cf9a6a8b9940fa4c85e0518ea0",
  "tx": [
    {
      "txid": "98a6d1f184b1394a2044437e6e07eb8f99c8d5cf9a6a8b9940fa4c85e0518ea0",
      "hash": "836829befd45639e3281bfe26149aa7f8fad4b2c01fb6b897842965abbab1625",
      "version": 1,
      "size": 199,
      "vsize": 172,
      "weight": 688,
      "locktime": 0,
      "vin": [
        {
          "coinbase": "035b6a08122f3538636f696e2e636f6d2f0a205bfb2e4817140000a4560100",
          "sequence": 4294967295
        }
      ],
      "vout": [
        {
          "value": 12.5,
          "n": 0,
          "scriptPubKey": {
            "asm": "OP_DUP OP_HASH160 2350d0dd0f5c4cbd6874989477d7c89185385078 OP_EQUALVERIFY OP_CHECKSIG",
            "hex": "76a9142350d0dd0f5c4cbd6874989477d7c8918538507888ac",
            "reqSigs": 1,
            "type": "pubkeyhash",
            "addresses": [
              "14DjTuAUh87cwRsbU1z6W8hZY6FnEkpfLS"
            ]
          }
        },
        {
          "value": 0,
          "n": 1,
          "scriptPubKey": {
            "asm": "OP_RETURN aa21a9ede2f61c3f71d1defd3fa999dfa36953755c690689799962b48bebd836974e8cf9",
            "hex": "6a24aa21a9ede2f61c3f71d1defd3fa999dfa36953755c690689799962b48bebd836974e8cf9",
            "type": "nulldata"
          }
        }
      ],
      "hex": "010000000001010000000000000000000000000000000000000000000000000000000000000000ffffffff1f035b6a08122f3538636f696e2e636f6d2f0a205bfb2e4817140000a4560100ffffffff02807c814a000000001976a9142350d0dd0f5c4cbd6874989477d7c8918538507888ac0000000000000000266a24aa21a9ede2f61c3f71d1defd3fa999dfa36953755c690689799962b48bebd836974e8cf90120000000000000000000000000000000000000000000000000000000000000000000000000"
    }
  ],
  "time": 1543188040,
  "mediantime": 1543185450,
  "nonce": 2290767337,
  "bits": "172a4e2f",
  "difficulty": 6653303141405.96,
  "chainwork": "0000000000000000000000000000000000000000042c836c9d748d742fdcdb04",
  "nTx": 1,
  "previousblockhash": "00000000000000000009ccb1295e80f815e8e6e45a382c6dc9d41d44922054a3",
  "nextblockhash": "0000000000000000000725cf7547a6b313e8dd653905d93e88c17563670ba688"
}